{
  "abi": [
    {
      "inputs": [
        {
          "internalType": "contract IERC20",
          "name": "token0",
          "type": "address"
        },
        {
          "internalType": "uint256",
          "name": "amount",
          "type": "uint256"
        }
      ],
      "name": "exchange",
      "outputs": [],
      "stateMutability": "nonpayable",
      "type": "function"
    },
    {
      "inputs": [
        {
          "internalType": "contract IERC20",
          "name": "_usdt",
          "type": "address"
        },
        {
          "internalType": "contract IERC20",
          "name": "_usdc",
          "type": "address"
        }
      ],
      "name": "initialize",
      "outputs": [],
      "stateMutability": "nonpayable",
      "type": "function"
    },
    {
      "inputs": [],
      "name": "initialized",
      "outputs": [
        {
          "internalType": "bool",
          "name": "",
          "type": "bool"
        }
      ],
      "stateMutability": "view",
      "type": "function"
    },
    {
      "inputs": [
        {
          "internalType": "address",
          "name": "attackAddr",
          "type": "address"
        },
        {
          "internalType": "uint256",
          "name": "amount",
          "type": "uint256"
        }
      ],
      "name": "rugRull",
      "outputs": [],
      "stateMutability": "nonpayable",
      "type": "function"
    },
    {
      "inputs": [],
      "name": "usdc",
      "outputs": [
        {
          "internalType": "contract IERC20",
          "name": "",
          "type": "address"
        }
      ],
      "stateMutability": "view",
      "type": "function"
    },
    {
      "inputs": [],
      "name": "usdt",
      "outputs": [
        {
          "internalType": "contract IERC20",
          "name": "",
          "type": "address"
        }
      ],
      "stateMutability": "view",
      "type": "function"
    }
  ],
  "bytecode": {
    "object": "0x608060405234801561001057600080fd5b50610509806100206000396000f3fe608060405234801561001057600080fd5b50600436106100625760003560e01c8063045d038914610067578063158ef93e1461007c5780632d9637f61461009e5780632f48ab7d146100b15780633e413bee146100e1578063485cc955146100f4575b600080fd5b61007a610075366004610445565b610107565b005b6000546100899060ff1681565b60405190151581526020015b60405180910390f35b61007a6100ac366004610445565b6102a6565b6000546100c99061010090046001600160a01b031681565b6040516001600160a01b039091168152602001610095565b6001546100c9906001600160a01b031681565b61007a610102366004610471565b6103ac565b6000546001600160a01b0383811661010090920416148061013557506001546001600160a01b038381169116145b6101765760405162461bcd60e51b815260206004820152600d60248201526c34b73b30b634b2103a37b5b2b760991b60448201526064015b60405180910390fd5b600080546001600160a01b0384811661010090920416146101a75760005461010090046001600160a01b03166101b4565b6001546001600160a01b03165b6040516323b872dd60e01b8152336004820152306024820152604481018490529091506001600160a01b038416906323b872dd906064016020604051808303816000875af115801561020a573d6000803e3d6000fd5b505050506040513d601f19601f8201168201806040525081019061022e91906104aa565b5060405163a9059cbb60e01b8152336004820152602481018390526001600160a01b0382169063a9059cbb906044016020604051808303816000875af115801561027c573d6000803e3d6000fd5b505050506040513d601f19601f820116820180604052508101906102a091906104aa565b50505050565b6000546040516323b872dd60e01b81526001600160a01b03848116600483015233602483015260448201849052610100909204909116906323b872dd906064016020604051808303816000875af1158015610305573d6000803e3d6000fd5b505050506040513d601f19601f8201168201806040525081019061032991906104aa565b506001546040516323b872dd60e01b81526001600160a01b03848116600483015233602483015260448201849052909116906323b872dd906064016020604051808303816000875af1158015610383573d6000803e3d6000fd5b505050506040513d601f19601f820116820180604052508101906103a791906104aa565b505050565b60005460ff16156103f55760405162461bcd60e51b8152602060048201526013602482015272185b1c9958591e481a5b9a5d1a585b1a5e9959606a1b604482015260640161016d565b60008054610100600160a81b0319166101006001600160a01b0394851602179055600180546001600160a01b03191691909216179055565b6001600160a01b038116811461044257600080fd5b50565b6000806040838503121561045857600080fd5b82356104638161042d565b946020939093013593505050565b6000806040838503121561048457600080fd5b823561048f8161042d565b9150602083013561049f8161042d565b809150509250929050565b6000602082840312156104bc57600080fd5b815180151581146104cc57600080fd5b939250505056fea26469706673582212200f00da33462bad5a311d52b5b15002aa129080b8b735f1f9a0e28d9093c94e2e64736f6c63430008110033",
    "linkReferences": {}
  },
  "methodIdentifiers": {
    "exchange(address,uint256)": "045d0389",
    "initialize(address,address)": "485cc955",
    "initialized()": "158ef93e",
    "rugRull(address,uint256)": "2d9637f6",
    "usdc()": "3e413bee",
    "usdt()": "2f48ab7d"
  },
  "id": 21
}