{
  "abi": [
    {
      "inputs": [
        {
          "internalType": "contract IERC20",
          "name": "token0",
          "type": "address"
        },
        {
          "internalType": "uint256",
          "name": "amount",
          "type": "uint256"
        }
      ],
      "name": "exchange",
      "outputs": [],
      "stateMutability": "nonpayable",
      "type": "function"
    },
    {
      "inputs": [
        {
          "internalType": "contract IERC20",
          "name": "_usdt",
          "type": "address"
        },
        {
          "internalType": "contract IERC20",
          "name": "_usdc",
          "type": "address"
        }
      ],
      "name": "initialize",
      "outputs": [],
      "stateMutability": "nonpayable",
      "type": "function"
    },
    {
      "inputs": [],
      "name": "initialized",
      "outputs": [
        {
          "internalType": "bool",
          "name": "",
          "type": "bool"
        }
      ],
      "stateMutability": "view",
      "type": "function"
    },
    {
      "inputs": [],
      "name": "usdc",
      "outputs": [
        {
          "internalType": "contract IERC20",
          "name": "",
          "type": "address"
        }
      ],
      "stateMutability": "view",
      "type": "function"
    },
    {
      "inputs": [],
      "name": "usdt",
      "outputs": [
        {
          "internalType": "contract IERC20",
          "name": "",
          "type": "address"
        }
      ],
      "stateMutability": "view",
      "type": "function"
    }
  ],
  "bytecode": {
    "object": "0x608060405234801561001057600080fd5b506103e1806100206000396000f3fe608060405234801561001057600080fd5b50600436106100575760003560e01c8063045d03891461005c578063158ef93e146100715780632f48ab7d146100935780633e413bee146100c3578063485cc955146100d6575b600080fd5b61006f61006a366004610325565b6100e9565b005b60005461007e9060ff1681565b60405190151581526020015b60405180910390f35b6000546100ab9061010090046001600160a01b031681565b6040516001600160a01b03909116815260200161008a565b6001546100ab906001600160a01b031681565b61006f6100e436600461034f565b610288565b6000546001600160a01b0383811661010090920416148061011757506001546001600160a01b038381169116145b6101585760405162461bcd60e51b815260206004820152600d60248201526c34b73b30b634b2103a37b5b2b760991b60448201526064015b60405180910390fd5b600080546001600160a01b0384811661010090920416146101895760005461010090046001600160a01b0316610196565b6001546001600160a01b03165b6040516323b872dd60e01b8152336004820152306024820152604481018490529091506001600160a01b038416906323b872dd906064016020604051808303816000875af11580156101ec573d6000803e3d6000fd5b505050506040513d601f19601f820116820180604052508101906102109190610382565b5060405163a9059cbb60e01b8152336004820152602481018390526001600160a01b0382169063a9059cbb906044016020604051808303816000875af115801561025e573d6000803e3d6000fd5b505050506040513d601f19601f820116820180604052508101906102829190610382565b50505050565b60005460ff16156102d15760405162461bcd60e51b8152602060048201526013602482015272185b1c9958591e481a5b9a5d1a585b1a5e9959606a1b604482015260640161014f565b60008054610100600160a81b0319166101006001600160a01b0394851602179055600180546001600160a01b03191691909216179055565b80356001600160a01b038116811461032057600080fd5b919050565b6000806040838503121561033857600080fd5b61034183610309565b946020939093013593505050565b6000806040838503121561036257600080fd5b61036b83610309565b915061037960208401610309565b90509250929050565b60006020828403121561039457600080fd5b815180151581146103a457600080fd5b939250505056fea2646970667358221220611d636b20a2b601e2519286aa4bd7e423a580d802209873a2634c116155573064736f6c63430008110033",
    "linkReferences": {}
  },
  "methodIdentifiers": {
    "exchange(address,uint256)": "045d0389",
    "initialize(address,address)": "485cc955",
    "initialized()": "158ef93e",
    "usdc()": "3e413bee",
    "usdt()": "2f48ab7d"
  },
  "id": 20
}