{
  "abi": [
    {
      "inputs": [
        {
          "internalType": "address",
          "name": "account",
          "type": "address"
        }
      ],
      "name": "addToWhitelist",
      "outputs": [],
      "stateMutability": "nonpayable",
      "type": "function"
    },
    {
      "inputs": [
        {
          "internalType": "address",
          "name": "account",
          "type": "address"
        }
      ],
      "name": "removeFromWhitelist",
      "outputs": [],
      "stateMutability": "nonpayable",
      "type": "function"
    },
    {
      "inputs": [
        {
          "internalType": "address",
          "name": "",
          "type": "address"
        }
      ],
      "name": "whitelist",
      "outputs": [
        {
          "internalType": "bool",
          "name": "",
          "type": "bool"
        }
      ],
      "stateMutability": "view",
      "type": "function"
    }
  ],
  "bytecode": {
    "object": "0x608060405234801561001057600080fd5b50610146806100206000396000f3fe608060405234801561001057600080fd5b50600436106100415760003560e01c80638ab1d681146100465780639b19251a14610077578063e43252d7146100ae575b600080fd5b6100756100543660046100e0565b6001600160a01b03166000908152602081905260409020805460ff19169055565b005b61009a6100853660046100e0565b60006020819052908152604090205460ff1681565b604051901515815260200160405180910390f35b6100756100bc3660046100e0565b6001600160a01b03166000908152602081905260409020805460ff19166001179055565b6000602082840312156100f257600080fd5b81356001600160a01b038116811461010957600080fd5b939250505056fea2646970667358221220c26694b6ce64e70dfb3f213c24e61806ab9fc7ad4bb384e47a5a8b404180eba664736f6c63430008110033",
    "linkReferences": {}
  },
  "methodIdentifiers": {
    "addToWhitelist(address)": "e43252d7",
    "removeFromWhitelist(address)": "8ab1d681",
    "whitelist(address)": "9b19251a"
  },
  "id": 22
}