{
  "abi": [
    {
      "anonymous": false,
      "inputs": [
        {
          "indexed": true,
          "internalType": "address",
          "name": "burner",
          "type": "address"
        },
        {
          "indexed": false,
          "internalType": "uint256",
          "name": "amount",
          "type": "uint256"
        }
      ],
      "name": "Burn",
      "type": "event"
    },
    {
      "anonymous": false,
      "inputs": [
        {
          "indexed": true,
          "internalType": "address",
          "name": "to",
          "type": "address"
        },
        {
          "indexed": false,
          "internalType": "uint256",
          "name": "amount",
          "type": "uint256"
        }
      ],
      "name": "Mint",
      "type": "event"
    },
    {
      "anonymous": false,
      "inputs": [
        {
          "indexed": true,
          "internalType": "address",
          "name": "from",
          "type": "address"
        },
        {
          "indexed": true,
          "internalType": "address",
          "name": "to",
          "type": "address"
        },
        {
          "indexed": false,
          "internalType": "uint256",
          "name": "value",
          "type": "uint256"
        }
      ],
      "name": "Transfer",
      "type": "event"
    },
    {
      "anonymous": false,
      "inputs": [
        {
          "indexed": true,
          "internalType": "address",
          "name": "_account",
          "type": "address"
        }
      ],
      "name": "UnWhitelisted",
      "type": "event"
    },
    {
      "anonymous": false,
      "inputs": [
        {
          "indexed": true,
          "internalType": "address",
          "name": "_account",
          "type": "address"
        }
      ],
      "name": "Whitelisted",
      "type": "event"
    },
    {
      "anonymous": false,
      "inputs": [
        {
          "indexed": true,
          "internalType": "address",
          "name": "newWhitelister",
          "type": "address"
        }
      ],
      "name": "WhitelisterChanged",
      "type": "event"
    },
    {
      "inputs": [
        {
          "internalType": "address",
          "name": "_account",
          "type": "address"
        }
      ],
      "name": "addWhitelist",
      "outputs": [],
      "stateMutability": "nonpayable",
      "type": "function"
    },
    {
      "inputs": [
        {
          "internalType": "address",
          "name": "account",
          "type": "address"
        }
      ],
      "name": "balanceOf",
      "outputs": [
        {
          "internalType": "uint256",
          "name": "",
          "type": "uint256"
        }
      ],
      "stateMutability": "view",
      "type": "function"
    },
    {
      "inputs": [
        {
          "internalType": "uint256",
          "name": "_amount",
          "type": "uint256"
        }
      ],
      "name": "burn",
      "outputs": [],
      "stateMutability": "nonpayable",
      "type": "function"
    },
    {
      "inputs": [],
      "name": "currency",
      "outputs": [
        {
          "internalType": "string",
          "name": "",
          "type": "string"
        }
      ],
      "stateMutability": "view",
      "type": "function"
    },
    {
      "inputs": [],
      "name": "decimals",
      "outputs": [
        {
          "internalType": "uint8",
          "name": "",
          "type": "uint8"
        }
      ],
      "stateMutability": "view",
      "type": "function"
    },
    {
      "inputs": [],
      "name": "getOwner",
      "outputs": [
        {
          "internalType": "address",
          "name": "owner",
          "type": "address"
        }
      ],
      "stateMutability": "view",
      "type": "function"
    },
    {
      "inputs": [
        {
          "internalType": "string",
          "name": "tokenName",
          "type": "string"
        },
        {
          "internalType": "string",
          "name": "tokenSymbol",
          "type": "string"
        },
        {
          "internalType": "string",
          "name": "tokenCurrency",
          "type": "string"
        },
        {
          "internalType": "uint8",
          "name": "tokenDecimals",
          "type": "uint8"
        }
      ],
      "name": "initialize",
      "outputs": [],
      "stateMutability": "nonpayable",
      "type": "function"
    },
    {
      "inputs": [
        {
          "internalType": "address",
          "name": "_account",
          "type": "address"
        }
      ],
      "name": "isWhitelisted",
      "outputs": [
        {
          "internalType": "bool",
          "name": "",
          "type": "bool"
        }
      ],
      "stateMutability": "view",
      "type": "function"
    },
    {
      "inputs": [
        {
          "internalType": "uint256",
          "name": "_amount",
          "type": "uint256"
        }
      ],
      "name": "mint",
      "outputs": [
        {
          "internalType": "bool",
          "name": "",
          "type": "bool"
        }
      ],
      "stateMutability": "nonpayable",
      "type": "function"
    },
    {
      "inputs": [],
      "name": "name",
      "outputs": [
        {
          "internalType": "string",
          "name": "",
          "type": "string"
        }
      ],
      "stateMutability": "view",
      "type": "function"
    },
    {
      "inputs": [],
      "name": "symbol",
      "outputs": [
        {
          "internalType": "string",
          "name": "",
          "type": "string"
        }
      ],
      "stateMutability": "view",
      "type": "function"
    },
    {
      "inputs": [
        {
          "internalType": "address",
          "name": "newOwner",
          "type": "address"
        }
      ],
      "name": "transferOwnership",
      "outputs": [],
      "stateMutability": "nonpayable",
      "type": "function"
    },
    {
      "inputs": [
        {
          "internalType": "address",
          "name": "_account",
          "type": "address"
        }
      ],
      "name": "unWhitelist",
      "outputs": [],
      "stateMutability": "nonpayable",
      "type": "function"
    },
    {
      "inputs": [
        {
          "internalType": "address",
          "name": "_newWhitelister",
          "type": "address"
        }
      ],
      "name": "updateWhitelister",
      "outputs": [],
      "stateMutability": "nonpayable",
      "type": "function"
    },
    {
      "inputs": [],
      "name": "whitelister",
      "outputs": [
        {
          "internalType": "address",
          "name": "",
          "type": "address"
        }
      ],
      "stateMutability": "view",
      "type": "function"
    }
  ],
  "bytecode": {
    "object": "0x6080604052600060095534801561001557600080fd5b50610e6f806100256000396000f3fe608060405234801561001057600080fd5b50600436106100f55760003560e01c8063893d20e811610097578063ed5c475b11610066578063ed5c475b14610235578063f21af00714610248578063f2fde38b1461025b578063f80f5dd51461026e57600080fd5b8063893d20e8146101fd57806395d89b4114610212578063a0712d681461021a578063e5a6b10f1461022d57600080fd5b80633af32abf116100d35780633af32abf1461016257806342966c681461019e578063458b35ee146101b357806370a08231146101c657600080fd5b806306fdde03146100fa57806322758a4a14610118578063313ce56714610143575b600080fd5b610102610281565b60405161010f9190610a2b565b60405180910390f35b60005461012b906001600160a01b031681565b6040516001600160a01b03909116815260200161010f565b6004546101509060ff1681565b60405160ff909116815260200161010f565b61018e610170366004610a79565b6001600160a01b031660009081526001602052604090205460ff1690565b604051901515815260200161010f565b6101b16101ac366004610aa9565b61030f565b005b6101b16101c1366004610a79565b6104ba565b6101ef6101d4366004610a79565b6001600160a01b031660009081526007602052604090205490565b60405190815260200161010f565b600080516020610e1a8339815191525461012b565b6101026105e3565b61018e610228366004610aa9565b6105f0565b61010261073f565b6101b1610243366004610b65565b61074c565b6101b1610256366004610a79565b610830565b6101b1610269366004610a79565b6108a3565b6101b161027c366004610a79565b610991565b6002805461028e90610c06565b80601f01602080910402602001604051908101604052809291908181526020018280546102ba90610c06565b80156103075780601f106102dc57610100808354040283529160200191610307565b820191906000526020600020905b8154815290600101906020018083116102ea57829003601f168201915b505050505081565b3360008181526001602052604090205460ff166103475760405162461bcd60e51b815260040161033e90610c3a565b60405180910390fd5b33600090815260076020526040902054826103b65760405162461bcd60e51b815260206004820152602960248201527f46696174546f6b656e3a206275726e20616d6f756e74206e6f7420677265617460448201526806572207468616e20360bc1b606482015260840161033e565b828110156104155760405162461bcd60e51b815260206004820152602660248201527f46696174546f6b656e3a206275726e20616d6f756e7420657863656564732062604482015265616c616e636560d01b606482015260840161033e565b6009546104229084610a0a565b60095561042f8184610a0a565b33600081815260076020526040908190209290925590517fcc16f5dbb4873280815c1ee09dbd06736cffcc184412cf7a71a0fdb75d397ca5906104759086815260200190565b60405180910390a260405183815260009033907fddf252ad1be2c89b69c2b068fc378daa952ba7f163c4a11628f55a4df523b3ef9060200160405180910390a3505050565b600080516020610e1a833981519152546001600160a01b0316336001600160a01b03161461052a5760405162461bcd60e51b815260206004820181905260248201527f4f776e61626c653a2063616c6c6572206973206e6f7420746865206f776e6572604482015260640161033e565b6001600160a01b03811661059b5760405162461bcd60e51b815260206004820152603260248201527f57686974656c69737461626c653a206e65772077686974656c697374657220696044820152717320746865207a65726f206164647265737360701b606482015260840161033e565b600080546001600160a01b0319166001600160a01b038316908117825560405190917f800d1de693142e2c37ef233754d1d9e7edc8ae28d34204ddf3e180c02d0b009e91a250565b6003805461028e90610c06565b3360008181526001602052604081205490919060ff166106225760405162461bcd60e51b815260040161033e90610c3a565b600083116106845760405162461bcd60e51b815260206004820152602960248201527f46696174546f6b656e3a206d696e7420616d6f756e74206e6f7420677265617460448201526806572207468616e20360bc1b606482015260840161033e565b6009546106919084610a1f565b600955336000908152600760205260409020546106ae9084610a1f565b33600081815260076020526040908190209290925590517f0f6798a560793a54c3bcfe86a93cde1e73087d944c0ea20544137d4121396885906106f49086815260200190565b60405180910390a260405183815233906000907fddf252ad1be2c89b69c2b068fc378daa952ba7f163c4a11628f55a4df523b3ef9060200160405180910390a3600191505b50919050565b6005805461028e90610c06565b60065460ff16156107b25760405162461bcd60e51b815260206004820152602a60248201527f46696174546f6b656e3a20636f6e747261637420697320616c726561647920696044820152691b9a5d1a585b1a5e995960b21b606482015260840161033e565b60026107be8582610cd1565b5060036107cb8482610cd1565b5060056107d88382610cd1565b506004805460ff191660ff831617905560008054336001600160a01b03199091168117909155610807906109bb565b61081d33600080516020610e1a83398151915255565b50506006805460ff191660011790555050565b6000546001600160a01b0316331461085a5760405162461bcd60e51b815260040161033e90610d91565b6001600160a01b038116600081815260016020526040808220805460ff19169055517f7cdb51b0cc2e541ad7e9471c358de415f5dbaff6cca78e3393d445346c610c1b9190a250565b600080516020610e1a833981519152546001600160a01b0316336001600160a01b0316146109135760405162461bcd60e51b815260206004820181905260248201527f4f776e61626c653a2063616c6c6572206973206e6f7420746865206f776e6572604482015260640161033e565b6001600160a01b0381166109785760405162461bcd60e51b815260206004820152602660248201527f4f776e61626c653a206e6577206f776e657220697320746865207a65726f206160448201526564647265737360d01b606482015260840161033e565b61098e81600080516020610e1a83398151915255565b50565b6000546001600160a01b031633146109bb5760405162461bcd60e51b815260040161033e90610d91565b6001600160a01b0381166000818152600160208190526040808320805460ff1916909217909155517faab7954e9d246b167ef88aeddad35209ca2489d95a8aeb59e288d9b19fae5a549190a250565b6000610a168284610df3565b90505b92915050565b6000610a168284610e06565b600060208083528351808285015260005b81811015610a5857858101830151858201604001528201610a3c565b506000604082860101526040601f19601f8301168501019250505092915050565b600060208284031215610a8b57600080fd5b81356001600160a01b0381168114610aa257600080fd5b9392505050565b600060208284031215610abb57600080fd5b5035919050565b634e487b7160e01b600052604160045260246000fd5b600082601f830112610ae957600080fd5b813567ffffffffffffffff80821115610b0457610b04610ac2565b604051601f8301601f19908116603f01168101908282118183101715610b2c57610b2c610ac2565b81604052838152866020858801011115610b4557600080fd5b836020870160208301376000602085830101528094505050505092915050565b60008060008060808587031215610b7b57600080fd5b843567ffffffffffffffff80821115610b9357600080fd5b610b9f88838901610ad8565b95506020870135915080821115610bb557600080fd5b610bc188838901610ad8565b94506040870135915080821115610bd757600080fd5b50610be487828801610ad8565b925050606085013560ff81168114610bfb57600080fd5b939692955090935050565b600181811c90821680610c1a57607f821691505b60208210810361073957634e487b7160e01b600052602260045260246000fd5b60208082526028908201527f57686974656c69737461626c653a206163636f756e742069736e2774207768696040820152671d195b1a5cdd195960c21b606082015260800190565b601f821115610ccc57600081815260208120601f850160051c81016020861015610ca95750805b601f850160051c820191505b81811015610cc857828155600101610cb5565b5050505b505050565b815167ffffffffffffffff811115610ceb57610ceb610ac2565b610cff81610cf98454610c06565b84610c82565b602080601f831160018114610d345760008415610d1c5750858301515b600019600386901b1c1916600185901b178555610cc8565b600085815260208120601f198616915b82811015610d6357888601518255948401946001909101908401610d44565b5085821015610d815787850151600019600388901b60f8161c191681555b5050505050600190811b01905550565b6020808252602c908201527f57686974656c69737461626c653a2063616c6c6572206973206e6f742074686560408201526b103bb434ba32b634b9ba32b960a11b606082015260800190565b634e487b7160e01b600052601160045260246000fd5b81810381811115610a1957610a19610ddd565b80820180821115610a1957610a19610ddd56fea7b53796fd2d99cb1f5ae019b54f9e024446c3d12b483f733ccc62ed04eb126ba2646970667358221220bea5a2a5c2fe516fdea4f9d7c8b81ef379bbc5381bf6cd1de576957d1e99c06264736f6c63430008110033",
    "linkReferences": {}
  },
  "methodIdentifiers": {
    "addWhitelist(address)": "f80f5dd5",
    "balanceOf(address)": "70a08231",
    "burn(uint256)": "42966c68",
    "currency()": "e5a6b10f",
    "decimals()": "313ce567",
    "getOwner()": "893d20e8",
    "initialize(string,string,string,uint8)": "ed5c475b",
    "isWhitelisted(address)": "3af32abf",
    "mint(uint256)": "a0712d68",
    "name()": "06fdde03",
    "symbol()": "95d89b41",
    "transferOwnership(address)": "f2fde38b",
    "unWhitelist(address)": "f21af007",
    "updateWhitelister(address)": "458b35ee",
    "whitelister()": "22758a4a"
  },
  "id": 20
}