{
  "abi": [
    {
      "anonymous": false,
      "inputs": [
        {
          "indexed": true,
          "internalType": "address",
          "name": "_account",
          "type": "address"
        }
      ],
      "name": "UnWhitelisted",
      "type": "event"
    },
    {
      "anonymous": false,
      "inputs": [
        {
          "indexed": true,
          "internalType": "address",
          "name": "_account",
          "type": "address"
        }
      ],
      "name": "Whitelisted",
      "type": "event"
    },
    {
      "anonymous": false,
      "inputs": [
        {
          "indexed": true,
          "internalType": "address",
          "name": "newWhitelister",
          "type": "address"
        }
      ],
      "name": "WhitelisterChanged",
      "type": "event"
    },
    {
      "inputs": [
        {
          "internalType": "address",
          "name": "_account",
          "type": "address"
        }
      ],
      "name": "addWhitelist",
      "outputs": [],
      "stateMutability": "nonpayable",
      "type": "function"
    },
    {
      "inputs": [],
      "name": "getOwner",
      "outputs": [
        {
          "internalType": "address",
          "name": "owner",
          "type": "address"
        }
      ],
      "stateMutability": "view",
      "type": "function"
    },
    {
      "inputs": [
        {
          "internalType": "address",
          "name": "_account",
          "type": "address"
        }
      ],
      "name": "isWhitelisted",
      "outputs": [
        {
          "internalType": "bool",
          "name": "",
          "type": "bool"
        }
      ],
      "stateMutability": "view",
      "type": "function"
    },
    {
      "inputs": [
        {
          "internalType": "address",
          "name": "newOwner",
          "type": "address"
        }
      ],
      "name": "transferOwnership",
      "outputs": [],
      "stateMutability": "nonpayable",
      "type": "function"
    },
    {
      "inputs": [
        {
          "internalType": "address",
          "name": "_account",
          "type": "address"
        }
      ],
      "name": "unWhitelist",
      "outputs": [],
      "stateMutability": "nonpayable",
      "type": "function"
    },
    {
      "inputs": [
        {
          "internalType": "address",
          "name": "_newWhitelister",
          "type": "address"
        }
      ],
      "name": "updateWhitelister",
      "outputs": [],
      "stateMutability": "nonpayable",
      "type": "function"
    },
    {
      "inputs": [],
      "name": "whitelister",
      "outputs": [
        {
          "internalType": "address",
          "name": "",
          "type": "address"
        }
      ],
      "stateMutability": "view",
      "type": "function"
    }
  ],
  "bytecode": {
    "object": "0x608060405234801561001057600080fd5b5061052b806100206000396000f3fe608060405234801561001057600080fd5b506004361061007d5760003560e01c8063893d20e81161005b578063893d20e814610103578063f21af00714610118578063f2fde38b1461012b578063f80f5dd51461013e57600080fd5b806322758a4a146100825780633af32abf146100b2578063458b35ee146100ee575b600080fd5b600054610095906001600160a01b031681565b6040516001600160a01b0390911681526020015b60405180910390f35b6100de6100c0366004610459565b6001600160a01b031660009081526001602052604090205460ff1690565b60405190151581526020016100a9565b6101016100fc366004610459565b610151565b005b6000805160206104d683398151915254610095565b610101610126366004610459565b61027f565b610101610139366004610459565b6102f2565b61010161014c366004610459565b6103e0565b6000805160206104d6833981519152546001600160a01b0316336001600160a01b0316146101c65760405162461bcd60e51b815260206004820181905260248201527f4f776e61626c653a2063616c6c6572206973206e6f7420746865206f776e657260448201526064015b60405180910390fd5b6001600160a01b0381166102375760405162461bcd60e51b815260206004820152603260248201527f57686974656c69737461626c653a206e65772077686974656c697374657220696044820152717320746865207a65726f206164647265737360701b60648201526084016101bd565b600080546001600160a01b0319166001600160a01b038316908117825560405190917f800d1de693142e2c37ef233754d1d9e7edc8ae28d34204ddf3e180c02d0b009e91a250565b6000546001600160a01b031633146102a95760405162461bcd60e51b81526004016101bd90610489565b6001600160a01b038116600081815260016020526040808220805460ff19169055517f7cdb51b0cc2e541ad7e9471c358de415f5dbaff6cca78e3393d445346c610c1b9190a250565b6000805160206104d6833981519152546001600160a01b0316336001600160a01b0316146103625760405162461bcd60e51b815260206004820181905260248201527f4f776e61626c653a2063616c6c6572206973206e6f7420746865206f776e657260448201526064016101bd565b6001600160a01b0381166103c75760405162461bcd60e51b815260206004820152602660248201527f4f776e61626c653a206e6577206f776e657220697320746865207a65726f206160448201526564647265737360d01b60648201526084016101bd565b6103dd816000805160206104d683398151915255565b50565b6000546001600160a01b0316331461040a5760405162461bcd60e51b81526004016101bd90610489565b6001600160a01b0381166000818152600160208190526040808320805460ff1916909217909155517faab7954e9d246b167ef88aeddad35209ca2489d95a8aeb59e288d9b19fae5a549190a250565b60006020828403121561046b57600080fd5b81356001600160a01b038116811461048257600080fd5b9392505050565b6020808252602c908201527f57686974656c69737461626c653a2063616c6c6572206973206e6f742074686560408201526b103bb434ba32b634b9ba32b960a11b60608201526080019056fea7b53796fd2d99cb1f5ae019b54f9e024446c3d12b483f733ccc62ed04eb126ba2646970667358221220d738584e45b7d6975f489bb0089b9555f8761b466172dcdf8f6dba79632b7e5064736f6c63430008110033",
    "linkReferences": {}
  },
  "methodIdentifiers": {
    "addWhitelist(address)": "f80f5dd5",
    "getOwner()": "893d20e8",
    "isWhitelisted(address)": "3af32abf",
    "transferOwnership(address)": "f2fde38b",
    "unWhitelist(address)": "f21af007",
    "updateWhitelister(address)": "458b35ee",
    "whitelister()": "22758a4a"
  },
  "id": 20
}